:020000040000fa
:080000000002040000000000f2
:020000040000fa
:10040000cfe62000807f240000018800000000006b
:10041000050007000c000700920802000000000021
:100420000040da000000fe004440a900002d20003a
:100430000000e0000300320000002000a00188005e
:100440004440a800000006004028220001002000cf
:100450001600370062004000e080480091018800eb
:100460009001ba0062004000e080480091018800dd
:100470009002ba0062004000e08048000002eb00f9
:100480006028e10005003a008301e900070033001d
:10049000038009000059eb00040037006128e100e7
:1004a000010032000082eb00050007009101880086
:1004b0001001ba000200e000e6ff3a00000005006b
:1004c000910188008002780062004000e0804800ce
:1004d0003559ba008301e900080032002559ba00f5
:1004e0008301e900050032000400e000f4ff32005f
:1004f00015d9ba008301e900f1ff3a0000000600b7
:100500000400fa00000f7800110798001e00780020
:1005100020738800217380001e00900080087800fe
:100520004382a9004362a9004342a9004322a800d4
:100530004302a80042c2a90042a2a80042e2a900c8
:10054000212420009140780030ceb30000c060002c
:100550008041b30042e2b70021242000914078009e
:10056000c0cfb30000c060000014a00042e2b7009a
:1005700045e2a9002c43a800c642a900ca42a8002f
:1005800041a2a9000080fa00000006000200fa0063
:10059000000f78009540a80041e2a8009e00780076
:1005a0000000eb00a00098009e0078000000eb0027
:1005b000900098009e0078000000eb00c0009800ba
:1005c0009e00780000102000b0009800ca42a800e9
:1005d0000080fa00000006001600fa0020079800cc
:1005e0003207980043079800510798006407980065
:1005f0002e00900010007800000f78009e00780018
:1006000020c0b300804878001e03e8003e00900040
:10061000ce00900002002000f30f200000027800be
:1006200081027800020078008300780000016200f7
:10063000018062006102b80074079800050f9800fd
:100640007e0090008e089000c000dd0000002000b9
:1006500070079800010f98007e0090008e089000af
:100660006112b80074079800050f98007e01900091
:100670008e09900002007000838070004088de00c8
:10068000cf80de00004b78001e83e8003e00900023
:10069000ce00900002f02f0003002000000278003e
:1006a0008102780002007800830078000001620077
:1006b000018062006102b800140f9800250f9800b5
:1006c0001e089000ae089000c000dd000000200071
:1006d000100f9800210f98001e089000ae0890009f
:1006e0006112b800140f9800250f98001e099000a1
:1006f000ae0990000200700083807000c809dd0020
:100700004800de0000807100c888de00004b7800e1
:100710001e027800630142003e0090008040780095
:1007200000c0eb0000c0600000497800ee009000bf
:1007300000102000808f50000200340000102000c4
:10074000600798009e0278006380420010407800a5
:100750000004e000100032009e007800638040003a
:10076000104078008080fb000010200081005000c5
:100770006e009000808f500007003d001e01780041
:1007800063004100104078008080fb0000102000d2
:1007900001005000600798000000eb00100798006f
:1007a0000b0037001e0090001e0040006401400056
:1007b0009e0090005e009000008040001040780095
:1007c000004978001e0090000000e8001007980023
:1007d000ee0090001e009000808f5000f1ff3e0060
:1007e0002e00900020009000800078000120a000e2
:1007f0002e009000210098006e009000e400400060
:100800002e00900031009800ca42a9001e00780016
:10081000104078000080fb00401288006e009000bd
:100820000080fa00000006001600fa002007980079
:100830003207980043079800510798006407980012
:100840003e009000ce00900002002000f30f200038
:1008500000027800810278000200780083007800ae
:1008600000016200018062006102b8007407980014
:10087000050f98007e0090008e089000c000dd00fb
:100880000000200070079800010f98007e00900083
:100890008e0890006112b80074079800050f980048
:1008a0007e0190008e09900002007000838070002d
:1008b0004088de00cf80de00204798003e00900098
:1008c000ce00900002f02f0003002000000278000c
:1008d0008102780002007800830078000001620045
:1008e000018062006102b800140f9800250f980083
:1008f0001e089000ae089000c000dd00000020003f
:10090000100f9800210f98001e089000ae0890006c
:100910006112b800140f9800250f98001e0990006e
:10092000ae0990000200700083807000c809dd00ed
:100930004800de0000807100c888de001047980083
:100940003e0090008040780000c0eb0000cf6000c7
:10095000ee00900000102000808f50000400340052
:10096000ae00900000102000b00098000300370097
:100970002e0090006e02900034009800de0090007f
:100980002e00900051009800ae0090000000eb0097
:10099000c0009800ca42a900300020004012880020
:1009a0002e009000200090000000a2006100600076
:1009b0000004e000faff3a002e009000a000900032
:1009c000e0ff2f00808060002e0090002100980042
:1009d0002e4090000000fb00401288002e00900086
:1009e000200090000000a200610060000004e00010
:1009f000faff3a002e009000a0009000e0ff2f00c8
:100a0000808060002e009000210098001e40900021
:100a10000000fb00401288002e0090002000900093
:100a20000000a200610060000004e000faff3a004c
:100a30002e009000a0009000e0ff2f00808060005a
:100a40002e009000210098001e00fb00401288003c
:100a50002e009000200090000000a20061006000c5
:100a60000004e000faff3a002e009000a000900081
:100a7000e0ff2f00808060002e0090002100980091
:100a80000000eb00401288002e0090002000900033
:100a9000800078000110a0002e0090002100980036
:100aa0000080fa00000006000400fa00000f780041
:100ab0001e007800200090004200de00610060000f
:100ac0000004e0000300320010002000100798002e
:100ad0002b0037001e007800200090000000d1009d
:100ae000610060000004e0000300320010002000fc
:100af0001007980022003700ca42a90050002000c9
:100b0000401288001e007800200090000000a20023
:100b1000610060000004e000faff3a001e00780067
:100b2000a0009000e0ff2f00808060001e00780091
:100b3000210098000000eb00401288001e007800a1
:100b4000200090000000a200610060000004e000ae
:100b5000faff3a001e007800a0009000e0ff2f008e
:100b6000808060001e00780021009800ca42a80022
:100b70001e007800100090006100600010079800cf
:100b80001e0090000080fa00000006000e00fa002f
:100b90004007980051079800620798005e00900097
:100ba000e10f500011003a00ca42a90020062000bf
:100bb000401288004e009000200090000000a2002b
:100bc000610060000004e000faff3a004e0090006f
:100bd000a0009000e0ff2f00808060004e00900099
:100be00021009800ca42a800ee0037005e00900085
:100bf000e20f500031003a006e009000200798008c
:100c0000ca42a90050012000401288004e00900006
:100c1000200090000000a200610060000004e000dd
:100c2000faff3a004e009000a0009000e0ff2f0075
:100c3000808060004e009000210098000000eb00d2
:100c400030079800180037000000eb0040128800c1
:100c50004e009000200090000000a20061006000a3
:100c60000004e000faff3a004e009000a00090005f
:100c7000e0ff2f00808060004e009000210098006f
:100c80003e009000800078002e00900080804000a0
:100c90004e00900010009000804878003e009000c8
:100ca0000000e800300798003e009000e30f50007d
:100cb000e5ff3400ca42a800ba0037005e00900089
:100cc000e30f500026003a006e00900010079800d5
:100cd000ca42a90050002000401288004e00900037
:100ce000200090000000a200610060000004e0000d
:100cf000faff3a004e009000a0009000e0ff2f00a5
:100d0000808060004e009000210098000000eb0001
:100d1000401288004e009000200090000000a200c9
:100d2000610060000004e000faff3a004e0090000d
:100d3000a0009000e0ff2f00808060004e00900037
:100d4000210098004e009000100090008040780034
:100d50001e00900001487800ca42a80091003700a8
:100d60005e009000e40f500011003a00ca42a90052
:100d700060002000401288004e009000200090008b
:100d80000000a200610060000004e000faff3a00e9
:100d90004e009000a0009000e0ff2f0080806000d7
:100da0004e00900021009800ca42a8007d00370044
:100db0005e009000e60f500011003a00ca42a90000
:100dc00040002000401288004e009000200090005b
:100dd0000000a200610060000004e000faff3a0099
:100de0004e009000a0009000e0ff2f008080600087
:100df0004e00900021009800ca42a8006900370008
:100e00005e009000e70f500043003a006e00900033
:100e1000000f7800ca42a900200520004012880077
:100e20004e009000200090000000a20061006000d1
:100e30000004e000faff3a004e009000a00090008d
:100e4000e0ff2f00808060004e009000210098009d
:100e50001e80e800104078000000fb00401288006f
:100e60004e009000200090000000a2006100600091
:100e70000004e000faff3a004e009000a00090004d
:100e8000e0ff2f00808060004e009000210098005d
:100e90001e00e800104078000000fb0040128800af
:100ea0004e009000200090000000a2006100600051
:100eb0000004e000faff3a004e009000a00090000d
:100ec000e0ff2f00808060004e009000210098001d
:100ed0001e007800104078000000fb0040128800df
:100ee0004e009000200090000000a2006100600011
:100ef0000004e000faff3a004e009000a0009000cd
:100f0000e0ff2f00808060004e00900021009800dc
:100f1000ca42a800230037005e009000e50f500091
:100f200020003a00ca42a9001000200040128800a8
:100f30004e009000200090000000a20061006000c0
:100f40000004e000faff3a004e009000a00090007c
:100f5000e0ff2f00808060004e009000210098008c
:100f60006e009000104078000000fb0040128800e6
:100f70004e009000200090000000a2006100600080
:100f80000004e000faff3a004e009000a00090003c
:100f9000e0ff2f00808060004e009000210098004c
:100fa000ca42a8000080fa00000006000000fa0013
:100fb0008540a90020738000200090004200de00e0
:100fc000610060000004e000240032002173800012
:100fd0004012800090009800217380004100900032
:100fe0000000e800c000980020738000c00090005e
:100ff0002073800030009000808f500009003d0079
:1010000020738000900078002073800040009000e2
:1010100000804000104078000000fb004012880073
:101020003e0037002273800020738000a0009000f3
:10103000b0ff2f0000806000200198002173800025
:101040000000eb00b0009800217380000000eb006e
:10105000c0009800ca42a80030003700207380000a
:10106000200090000000d100610060000004e0005a
:101070002200320020738000d00090002073800096
:10108000400090008080400040128000804878003e
:1010900021738000410090000000e800c00098002b
:1010a00020738000c000900020738000300090000a
:1010b000808f500003003d000000eb0040128800cc
:1010c000160037002273800020738000a00090007b
:1010d000d0ff2f0000806000200198002173800065
:1010e0000000eb00b0009800217380000000eb00ce
:1010f000c0009800ca42a800080037002173800091
:1011000020738000200090000000a000a000980044
:101110002173800040128000900098000080fa0047
:10112000000006001800fa006000b800200f9800c8
:10113000310f98000000200021002000000f9800cf
:10114000110f980000002000210020006007980087
:10115000710798006000b800400798005107980098
:101160000000eb00300798000000eb00200798001b
:101170000000eb001007980060022000303a880061
:10118000417420009140780000ceb30000c06000a0
:101190000004a00044e7b70044c7bf00f043b2001a
:1011a00044e7b7000000eb00403a8800120020003e
:1011b00081072000a00920003374200081497800b5
:1011c00080497800824978001200200061042000e4
:1011d0007005200023742000814978008049780040
:1011e0008249780043c7bf000047b200f04f50006b
:1011f000fcff3a0042c7bf000042b2000004e0001a
:10120000fcff320022010700e0728000c1a820002c
:101210000b040700c0d020006a010700e0728000c4
:1012200041040700e0728000da0507000205200093
:1012300021002000409f20002d080700020520000b
:101240002100200000a4200046080700000037000d
:10125000f0728000e30f500033003a000299200042
:10126000030520002e089000be0890001802070019
:101270006101b9002e089000be08900000004100f6
:1012800081804900200f9800310f98002e099000ae
:10129000be099000f01f270001002000800f5100c0
:1012a000818f5900030034006000b800200f9800bf
:1012b000310f9800028f20000199200000a4200027
:1012c000410807000040eb00004f78000b0037009a
:1012d0001e81fb001e80fb00018f200000004000eb
:1012e00060807800c201dd00018f20000200410013
:1012f00001004000030878001e4fe800f0c4b3006e
:101300009e4f1000f2ff3600e07280007504070067
:101310000000e000fcff3a00e072800002052000bf
:10132000018f200090040700f0728000e10f500050
:1013300069003a001e0090000000e00029003a0019
:10134000e07280002c040700000020002100200033
:10135000000f9800110f98000000200021002000cd
:101360006007980071079800d1e2a900d1a2a800f7
:10137000000020002100200040079800510798003d
:101380000b0037004e009000de0090007b0107004c
:101390004e009000de0090000200200013002000ac
:1013a00000004100818049004007980051079800e3
:1013b0004e019000de019000e0ff2f007100200040
:1013c000800f5100818f5900eeff3400d1e2a80058
:1013d0001000200010079800e0728000d203070080
:1013e0003d003700d1a2a900e07280004e04070042
:1013f0000000e000fcff3a00e072800002052000df
:1014000001852000020407000040eb00004f780037
:101410000b0037001e81fb001e80fb0001852000b1
:101420000000400060807800c281de00018520005d
:101430000200410001004000030878001e4fe80050
:10144000f0c4b3009e4f1000f2ff36000299200056
:1014500001852000409f2000b408070023002000e1
:1014600002052000019e200000992000bb06070015
:10147000029e2000430120000e0890009e0890006c
:10148000560107006101b9000e0890009e08900007
:101490000000410081804900000f9800110f980062
:1014a0000e0990009e099000e0ff2f0071002000bf
:1014b000800f5100818f590007003400d1a2a8008d
:1014c0000000eb00100798000000eb0030079800c8
:1014d0001000200020079800f07280000000e0005b
:1014e0003c003a00d1c2a9000000eb0010079800b0
:1014f000029e2000430120006e009000fe0090003c
:10150000730107006101b9006e009000fe009000b9
:101510000000410081804900600798007107980031
:101520006e019000fe0190000e0890009e08900051
:10153000800f5100818f5900040035000000200009
:101540002100200060079800710798002300200008
:101550000205200001992000009e2000f4060700eb
:10156000028f20000199200000a4200096070700a8
:101570000040eb00004f78000b0037001e81fb009d
:101580001e80fb00018f200000004000608078007a
:10159000c201dd00018f2000020041000100400077
:1015a000030878001e4fe800f0c4b3009e4f1000ff
:1015b000f2ff3600e0728000ca0307000000e0007e
:1015c000fcff3a00e072800002052000018f20003d
:1015d000e503070051000700e10f50000d003a003d
:1015e00010002000f07288006000b800200f980002
:1015f000310f98000000eb0010079800f072800097
:10160000e10f500002003a00d1c2a80001003700eb
:10161000d1a2a80056000700e10f50000cff3a00cd
:10162000d1c2bf000080fb004600de0061406000c8
:101630000004a20061406000614060004601dd00de
:10164000112d200091407800f0cbb30000c0600065
:1016500002407000d1e2b7000000eb00f072880099
:10166000000020002100200060079800710798000a
:101670006000b800200f9800310f9800f0728000d1
:101680000000e000f2fe3a00d1a2a800f0fe370010
:101690000400fa00cda2a900cde2a900cdc2a900a4
:1016a000d1a2a800d1e2a800d1c2a800d302a8000c
:1016b000d322a800e402a900e422a900e802a900bc
:1016c000e822a9000000eb00007388000000eb0096
:1016d000107388002ca3a800c6a2a900caa2a80063
:1016e0006000b800008fbe00050037000000000059
:1016f00010002000010020001e0f40005e974800ef
:10170000f07f200001002000be0f1000ae8f1800f7
:10171000f6ff34000080fa00000006000200fa0024
:10172000d5c2bf00614060000004e00009003a003b
:10173000007380000000e8000073880000738000e0
:10174000ec0f500007003a0010002000000f780056
:10175000040037000000eb00007388000000eb007d
:10176000000f78001e0078000080fa0000000600dc
:101770000200fa00d5c2bf00624060000004e00031
:1017800009003a00107380000000e8001073880020
:1017900010738000ec0f500007003a00100020008a
:1017a000000f7800040037000000eb001073880081
:1017b0000000eb00000f78001e0078000080fa00a7
:1017c000000006000a00fa00400798000000eb0045
:1017d00030079800a033200010128800c642a900ec
:1017e0002c43a800ca42a80041e2a800ca42a900ae
:1017f000000920004012880040c2bf006140600024
:101800000004e000fcff320040128000000f78006e
:101810000000eb004012880040c2bf006140600041
:101820000004e000fcff320040128000000f78004e
:101830000000eb004012880040c2bf006140600021
:101840000004e000fcff320040128000000f78002e
:101850000000eb004012880040c2bf006140600001
:101860000004e000fcff320040128000000f78000e
:101870000000eb004012880040c2bf0061406000e1
:101880000004e000fcff32004012800010079800c6
:101890000000eb004012880040c2bf0061406000c1
:1018a0000004e000fcff3200401280002007980096
:1018b000ca42a8008540a9009e009000f00b2000bd
:1018c000808f50000b003a0010002000d07288007a
:1018d000ce009000c0e42000c0000700c072880065
:1018e000c0728000660147005100200024010700fb
:1018f000070037000000eb00d072880030738000d2
:10190000ce009000fefa0700307380001ffb070036
:101910000080fa00000006000000fa00d07280008b
:10192000e10f500007003a00c07280000001eb0098
:1019300011002000120107000000e000faff320051
:101940000c003700307380000001eb0041002000e4
:101950008efc0700307380000001eb0011002000b6
:101960008afc0700307380004ffc07000000e00095
:10197000fcff3a000080fa00000006000400fa00b4
:10198000008fbe00d0728000e10f500005003a00c9
:10199000c07280000e01780091002000f80007005e
:1019a0000c003700307380000001eb004100200084
:1019b00076fc0700307380000e0178007100200073
:1019c00072fc07003073800037fc07000000e00065
:1019d000fcff3a000080fa00000006000a00fa004e
:1019e00010079800210798003207980043079800d5
:1019f0000000eb00000f7800d0728000e10f500073
:101a00002d003a00100037004e0090001e025000da
:101a10001e007800800078003e0090008082400028
:101a20001e0078006101b9001e009000ae00900019
:101a30000201400083814800c07280008500780068
:101a4000800007001e0f40004e0090009e0f100007
:101a5000edff35001b0037003073800012fc0700db
:101a60000000e000fcff3a00307380000001eb0052
:101a70004100200045fc07004e0090001e0250006f
:101a80001e007800800078003e00900080824000b8
:101a90001e0078006101b9001e009000ae009000a9
:101aa0000201400083814800307380008500780087
:101ab000c9fa07001e0f40004e0090009e0f100054
:101ac000e5ff35004e0090000080fa00000006009f
:101ad0000a00fa00100798002107980032079800c2
:101ae000430798000000eb00000f7800d0728000e0
:101af000e10f500015003a00100037004e00900032
:101b00001e0250001e007800800078003e00900009
:101b1000808240001e0078006101b9001e00900024
:101b2000ae0090000201400083814800c072800036
:101b300085007800640007001e0f40004e009000f2
:101b40009e0f1000edff35000e003700307380004f
:101b5000d5fb07000000e000fcff3a003073800076
:101b60004e029000be0090001e019000ae01900059
:101b70002dfb070030738000cbfb07000000e00066
:101b8000fcff3a004e0090000080fa0000000600c2
:101b90003600f800809fbe00829fbe00849fbe007a
:101ba000869fbe000000fa00d0728000e10f500056
:101bb00002003a003e01070001003700fbfc07006d
:101bc0000080fa004f03be004f02be004f01be006e
:101bd0004f00be003600f900004006004073880048
:101be000010098000001eb0012009800220098000c
:101bf00032009800023220008201b3002200b300bc
:101c00001212880045e2a90041a2a9008540a9005e
:101c10009540a80041e2a8002c43a800c642a900b4
:101c2000ca42a8001e21ef001421ef00022020006c
:101c3000d20888008760a9009760a80040738000e0
:101c400000000600100390000630a60002003700d6
:101c50000000eb00000006000400e00002003c0071
:101c60000000eb00000006000510200005a0e600c3
:101c7000041020008002eb0035009800240098003a
:101c8000800290008003eb00e1f27b008703e80014
:101c90000402e9000400e000fbff3c000630a00065
:101ca00084ff2f0004036300160098004200980090
:101cb00053009800ca42a900640020004412880022
:101cc0000700780000000600100390000630a60010
:101cd000020037000000eb00000006000400e000f6
:101ce00002003c000000eb00000006009540a90047
:101cf00045128000ca42a900350020004512880024
:101d00004002ae00feff37004512800043128800fb
:101d10004002ae00feff3700451280000280fd0049
:101d2000421288004002ae00feff370045128000dc
:101d30000280fd00421288004002ae00feff370024
:101d4000451280000003eb008002eb004512880082
:101d50004002ae00feff37004712800087707b0014
:101d60000603e80004b0e700f8ff3700ca42a80005
:101d70008540a9009540a8000400780000000600f6
:101d8000100390000630a600020037000000eb00b0
:101d900000000600230020000198e7001f00370024
:101da0009540a9004412800003092000ca42a900fe
:101db000431288004002ae00feff3700441280004c
:101dc0008001eb0035002000431288004002ae0085
:101dd000feff3700441280008502e9000500e000a4
:101de000f9ff3c0045002000431288004002ae008d
:101df000feff370044128000045978008502e90094
:101e00000500e000f8ff3c00ca42a8008540a90098
:101e10009540a800100020000000060013002000dc
:101e20000198e700240037009540a9004412800083
:101e300063002000ca42a900431288004002ae009d
:101e4000feff3700ca42a8004412800003062000ab
:101e50000000000000000000ca42a90043128800f0
:101e60004002ae00feff3700ca42a80044128000c4
:101e7000ca42a90053002000431288004002ae006d
:101e8000feff3700441280008001eb0043128800ff
:101e90004002ae00feff3700441280000400a7009d
:101ea000faff3700ca42a8008540a9009540a80063
:101eb0001000200000000600330020000198e70019
:101ec000130037009540a900ca42a90044128000bf
:101ed00053002000431288004002ae00feff37008e
:101ee000441280008001eb00431288004002ae00e3
:101ef000feff37004412800004497800ca42a8005f
:101f00008540a9009540a8001000200000000600b0
:101f1000430020000198e7000d0037009540a9001c
:101f20004412800063002000ca42a90043128800c6
:101f30004002ae00feff3700ca42a80044128000f3
:101f40008540a9009540a800100020000000060070
:101f5000530020000198e700190037009540a900c0
:101f60004412800003052000ca42a90043128800e1
:101f70004002ae00feff3700ca42a80044128000b3
:101f800013002000ca42a900431288004002ae009c
:101f9000feff37004412800092017800431288004f
:101fa0004002ae00feff3700ca42a8004412800083
:101fb0008540a9009540a800100020000000060000
:101fc000930020000198e700370037009540a900f2
:101fd00044128000ca42a900630020004312880016
:101fe0004002ae00feff3700ca42a8004412800043
:101ff000830d20000000000000000000ca42a9007c
:10200000431288004002ae00feff370044128000f9
:1020100092019000431288004002ae00feff37009c
:1020200044128000920178000380fd004312880072
:102030004002ae00feff3700441280000380fd0026
:10204000431288004002ae00feff370044128000b9
:10205000ca42a800000000000000000000000000cc
:1020600053002000ca42a900431288004002ae007b
:10207000feff3700441280008001eb00431288000d
:102080004002ae00feff3700441280000400a700ab
:10209000faff3700ca42a8008540a9009540a80071
:1020a00010002000000006000000eb000000060009
:1020b000801f7800811f7800821f7800831f7800be
:1020c000841f78008540a90044128000407380007e
:1020d00090009000678160000200e00007003c0073
:1020e000ca42a8008100e8001100980023002000e7
:1020f000ca42a90043128800240037006110e100a1
:1021000005003c008100e80011009800d00190001b
:10211000431288001d0037006210e10006003c00f9
:102120008100e80011009800c00190000380fd00cc
:1021300043128800150037006310e10005003c00e1
:102140008100e80011009800c0019000431288004f
:102150000e0037006410e1000a003c008100e80036
:10216000110098008001900030029000e3417a0055
:10217000200290000402e900240098004312880025
:1021800002003700ca42a8001fe1a8004f027800f1
:10219000cf0178004f017800cf0078004f00780021
:1021a00000000600801f7800811f7800821f7800e1
:1021b000831f78008760a9001fe1a9001421ef00a8
:1021c00040738000a00090000100e0001400340083
:1021d000b00090008100e80031009800d00190002c
:1021e0004001900061014100e08149008100200030
:1021f0000198e6008001eb0053009800420098002f
:102200009000900082ff2f00810061001100980073
:10221000ca42a9006300200043128800030037006f
:10222000900090000130a10011009800cf017800cb
:102230004f017800cf0078004f0078000040060082
:102240000600fa00100798002107980081e2a90013
:1022500007e2a90007a2a9000762a9000742a90096
:102260000722a8000702a900001120002010880002
:10227000e442a800e462a800007020000014880076
:10228000f000200010148800100020004014880086
:1022900010002000601488001e0090005073880019
:1022a0001e009000ae009000010878002e00900003
:1022b000010a2000808040001e009000110098005c
:1022c0002e00900001142000808040001e0090002d
:1022d000210098002e009000011e20008080400008
:1022e0001e009000310098000000eb00000f780005
:1022f000080037001e0078000000400080007800d1
:102300002e009000808040000000eb0080087800e4
:102310001e0fe800f01320009e0f1000f5ff3400a0
:102320000080fa00000006000200fa00000f7800aa
:102330009e0078000000eb00900898001e007800d6
:1023400010089000800078000100a0001e007800b6
:10235000110898001e007800100890008000780096
:102360000110a0001e007800110898001e007800df
:1023700010007800800078001e007800710098003e
:102380001e00780020009000800078001e00780079
:10239000010898009e0078000000eb00c000980043
:1023a0009e007800f0042000d00098009e00780085
:1023b000f0042000e00098001e0078000008900063
:1023c00010007800c014880007e2a8008b80a900e4
:1023d0009b80a800210c20009140780080cfb300a2
:1023e00000c060000024a000c2e0b70081e2a800a5
:1023f0000080fa00000006000200fa00000f7800da
:1024000081e2a9009b80a9000080fa00000006007c
:102410000a00fa0020079800310798004207980048
:102420002e009000100890004200de000000a20084
:10243000610060000004e000040032002e00900003
:102440009000900011079800030037002e009000c4
:102450009000780011079800ce0090000005200041
:10246000808f5000020034000005200040079800d3
:102470000000eb00000f78000d0037001e00780010
:1024800000004000800078003e0090000081400085
:102490001e00780000004000800078001e009000c0
:1024a0000080400010007800000978001e0fe8004e
:1024b0004e0090009e0f1000f0ff35000400fc005d
:1024c0002e00900010089000800078000100a0000d
:1024d0002e009000110898000000fc000080fa0017
:1024e000000006000400fa00000f78001e007800cb
:1024f000100890000000d1000000a2006100600000
:102500000004e000030032000000eb001007980018
:102510000200370010002000100798001e009000f5
:102520000080fa00000006000400fa00000f7800a6
:102530001e007800100890000000a20061006000fa
:102540000004e000030032000000eb0010079800d8
:102550000200370010002000100798001e009000b5
:102560000080fa00000006000a00fa002007980028
:1025700031079800420798002e0090001008900044
:102580004200de000000a200610060000004e000e4
:10259000040032002e009000b00090001107980057
:1025a000030037002e009000a00090001107980053
:1025b000ce00900000052000808f50000200340003
:1025c00000052000400798002e009000ce009000eb
:1025d000610098000000eb00000f78000d0037004c
:1025e0001e00780000004000800078001e0090006f
:1025f000008140001e00780000004000800078004c
:102600003e00900000804000100078000009780033
:102610001e0fe8004e0090009e0f1000f0ff3500e6
:102620000400fc002e00900010089000800078004c
:102630000110a0002e009000110898000000fc007e
:102640000080fa00000006000a00fa001007980057
:1026500021079800320798003e0090001000780093
:10266000000f78001e409000614060001047980005
:102670002e00900000004000200798001e409000af
:102680008080fb002e009000010070002007980061
:102690000602a80006c2bf00614060000004e0001e
:1026a000fcff3a00400320001010880009c2bf0060
:1026b0000044b2000004e000fcff3a0009c2bf0081
:1026c00001c8b300014060000004e00008003200cf
:1026d0000642a80006c2bf00644060000004e0009b
:1026e000fcff3a000080eb00400798002e00370006
:1026f0002e0090001010880009c2bf000044b200f4
:102700000004e000fcff3a0009c2bf0001c8b300aa
:10271000014060000004e000080032000642a8000a
:1027200006c2bf00644060000004e000fcff3a0005
:102730000080eb00400798001b0037001e40780027
:102740000080fb001010880009c2bf000044b200e6
:102750000004e000fcff3a0009c2bf0001c8b3005a
:10276000014060000004e000080032000642a800ba
:1027700006c2bf00644060000004e000fcff3a00b5
:102780000080eb0040079800070037000642a800d1
:1027900006c2bf00644060000004e000fcff3a0095
:1027a00010002000400798004e0090000080fa00c2
:1027b00000000600809fbe00821f78000000fa0023
:1027c0008b80a900f0728000e10f500034003a00c5
:1027d00050738000f0009000507380004000900023
:1027e0000000400080804000801480008008780055
:1027f00051738000410090000000e800c000980084
:1028000050738000c0009000507380005000900012
:10281000808f50005b003a0051738000507380003d
:10282000100890000020a2009008980050738000cb
:10283000100890004200de00610060000004e0002b
:10284000050032005173800050738000100090002a
:10285000f00098000400370051738000507380002e
:1028600010007800f0009800517380000000eb0029
:10287000c000980051738000507380006000900089
:10288000d000980052738000507380009008900030
:10289000e0ff2f0000806000100998003900370029
:1028a00050738000800890005073800040009000ba
:1028b000000040000080400010007800c014880034
:1028c00051738000410090000000e800c0009800b3
:1028d00050738000c0009000507380005000900042
:1028e000808f500027003a005173800050738000a1
:1028f000100890000020a2009008980050738000fb
:10290000100890004200de00610060000004e0005a
:102910000500320051738000507380003000900039
:1029200080089800040037005173800050738000c5
:102930002000900080089800517380000000eb0098
:10294000c0009800517380005073800060009000b8
:10295000d00098005273800050738000900890005f
:10296000e0ff2f0000806000100998005273800083
:102970005073800090089000d0ff2f00008060000e
:10298000100998000080fa004f0178004f00be0047
:10299000004006000600fa00200798001000200002
:1029a000100798000e81e8008000eb002e009000d8
:1029b00025ff0700000f78000080eb009e0f10003d
:1029c00001003a00ffff3700f006200010079800d2
:1029d0000e81e800110020002e0090001aff070071
:1029e0000080eb009e0f100001003a00ffff37004f
:1029f00050012000100798000e81e80021002000ff
:102a00002e00900010ff07000080eb009e0f1000ca
:102a100001003a00ffff37009008200010079800df
:102a20000e81e800310020002e00900006ff070014
:102a30000080eb009e0f100001003a00ffff3700fe
:102a400080012000100798000e81e800410020005e
:102a50002e009000fcfe07000080eb009e0f10008f
:102a600001003a00ffff3700901a2000100798007d
:102a70000e81e800610020002e009000f2fe0700a9
:102a80000080eb009e0f100001003a00ffff3700ae
:102a9000a0002000100798000e81e80071002000bf
:102aa0002e009000e8fe07000080eb009e0f100053
:102ab00001003a00ffff3700400020001007980097
:102ac0000e81e800810020002e009000defe07004d
:102ad0000080eb009e0f100001003a00ffff37005e
:102ae00080102000100798000e81e800e10020000f
:102af0002e009000d4fe07000080eb009e0f100017
:102b000001003a00ffff3700000420001007980082
:102b10000e81e800b10120002e009000cafe0700df
:102b20000080eb009e0f100001003a00ffff37000d
:102b300050002000100798000e81e800c10120001d
:102b40002e009000c0fe07000080eb009e0f1000da
:102b500001003a00ffff3700f00320001007980043
:102b60000e81e800d10120002e009000b6fe070083
:102b70000080eb009e0f100001003a00ffff3700bd
:102b8000d0072000100798000e81e800e101200026
:102b90002e009000acfe07000080eb009e0f10009e
:102ba00001003a00ffff37000010200010079800d6
:102bb0000e81e800e10120002e009000a2fe070037
:102bc0000080eb009e0f100001003a00ffff37006d
:102bd00080012000100798000e81e80041022000cb
:102be0002e00900098fe07000080eb009e0f100062
:102bf00001003a00ffff3700c000200010079800d6
:102c00000e81e800510220002e0090008efe070089
:102c10000080eb009e0f100001003a00ffff37001c
:102c200030092000100798000e81e80061022000a2
:102c30002e00900084fe07000080eb009e0f100025
:102c400001003a00ffff3700900e200010079800a7
:102c50000e81e800710220002e0090007afe07002d
:102c60000080eb009e0f100001003a00ffff3700cc
:102c700040002000100798000e81e800c1022000eb
:102c80002e00900070fe07000080eb009e0f1000e9
:102c900001003a00ffff37000000eb00100798002a
:102ca0000e81e800f10220002e00900066fe070071
:102cb0000080eb009e0f100001003a00ffff37007c
:102cc00010002000100798000e81e800810320000a
:102cd0002e0090005cfe07000080eb009e0f1000ad
:102ce00001003a00ffff37000080fa0000000600f4
:102cf0000600fa0020079800100020001007980036
:102d00000e81e8008000eb002e0090004efe0700d0
:102d1000000f78000080eb009e0f100001003a00c9
:102d2000ffff3700f0062000100798000e81e80032
:102d3000110020002e00900043fe07000080eb00f1
:102d40009e0f100001003a00ffff370050012000e5
:102d5000100798000e81e800210020002e0090004e
:102d600039fe07000080eb009e0f100001003a00c2
:102d7000ffff370090082000100798000e81e80040
:102d8000310020002e0090002ffe07000080eb0095
:102d90009e0f100001003a00ffff37008001200065
:102da000100798000e81e800410020002e009000de
:102db00025fe07000080eb009e0f100001003a0086
:102dc000ffff370090162000100798000e81e800e2
:102dd000610020002e0090001bfe07000080eb0029
:102de0009e0f100001003a00ffff37006000200036
:102df000100798000e81e800710020002e0090005e
:102e000011fe07000080eb009e0f100001003a0049
:102e1000ffff370040002000100798000e81e800f7
:102e2000810020002e00900007fe07000080eb00cc
:102e30009e0f100001003a00ffff370080012000c4
:102e4000100798000e81e800410220002e0090003b
:102e5000fdfd07000080eb009e0f100001003a000e
:102e6000ffff3700c0002000100798000e81e80027
:102e7000510220002e009000f3fd07000080eb00bf
:102e80009e0f100001003a00ffff370030092000bc
:102e9000100798000e81e800610220002e009000cb
:102ea000e9fd07000080eb009e0f100001003a00d2
:102eb000ffff3700900e2000100798000e81e800f9
:102ec000710220002e009000dffd07000080eb0063
:102ed0009e0f100001003a00ffff37004000200065
:102ee000100798000e81e800c10220002e0090001b
:102ef000d5fd07000080eb009e0f100001003a0096
:102f0000ffff37000000eb00100798000e81e8007b
:102f1000f10220002e009000cbfd07000080eb00a6
:102f20009e0f100001003a00ffff37001000200044
:102f3000100798000e81e800810320002e00900009
:102f4000c1fd07000080eb009e0f100001003a0059
:102f5000ffff37000080fa00000006001a00fa00a8
:102f600070079800010f9800120f9800230f980027
:102f70000e089000200798001e0890000000e00056
:102f800003003c008000eb00310f98006500370023
:102f90002e089000400f9800ce089000e38f50005c
:102fa000110032004e089000e30f500004003e0074
:102fb000ce089000e28f5000080032001300370066
:102fc0004e089000e40f50000a003200ce08900036
:102fd000e58f50000a0032000c003700800020000e
:102fe000300798000c003700500020003007980090
:102ff0000900370040002000300798000600370025
:103000003000200030079800030037000000eb007c
:10301000300f9800430037000000eb004007980095
:103020000000eb00600798000000eb00100798001c
:103030000000eb00000f7800280037004e009000e1
:10304000800078007e0090000080400010407800f2
:103050000080fb00500798009e0090002e08900012
:103060000088b900800078005e0090000100dd005b
:1030700050079800ee0090005e0090000080700005
:10308000600798001e0090000000e80010079800fc
:103090004e0090000000e800400798009e0090005d
:1030a0003e009000808f50000c003a001e00780017
:1030b00000004000800078002e009000008040005a
:1030c000ee009000010878000000eb001007980067
:1030d0001e0fe8000000eb0060079800ce00900093
:1030e0001e089000808f5000d4ff35001e00900015
:1030f0000000e000080032001e00780000004000e0
:10310000800078002e00900000804000ee009000cb
:10311000010878001e0fe8001e0078000000400043
:10312000300f98003e0890000080fa000000060072
:103130001c00fa00000f9800110f9800220f980051
:10314000330f98000e08900060079800be089000aa
:10315000510f98005e089000e30f500013003200fa
:10316000de089000e38f500004003e005e089000ef
:10317000e20f5000080032001b003700de0890000c
:10318000e48f50000e0032005e089000e50f500002
:1031900010003200140037008000200070079800f3
:1031a00030002000000f780012003700500020008f
:1031b0007007980070002000000f78000d003700a5
:1031c0004000200070079800f0002000000f7800f9
:1031d000080037003000200070079800f001200040
:1031e000000f7800030037008000eb00410f9800cb
:1031f0003c0037000000eb00100798000000eb00d7
:10320000200798001e009000000040008000780019
:103210006e009000008040009000780051079800f8
:103220000000eb003007980028003700be00900037
:103230003e0890000088b900800078005e00900091
:103240000100de00004f98001e00780080407800ea
:103250000e48900000c06000004f98002e009000c3
:10326000800078001e089000008040008e4890008a
:10327000014878002e0090000000e8002007980028
:103280003e0090000000e80030079800be0090006b
:103290007e009000808f50000c003a000000eb0090
:1032a000300798001e0090000000e800100798000a
:1032b0001e00900000004000800078006e0090002a
:1032c000008040009000780051079800ae00900008
:1032d0002e089000808f5000d4ff35002e00900003
:1032e000400f98004e0890000080fa000000060091
:1032f0000302200004222000150020000680280080
:103300003220980007000800010000000318780030
:103310000018eb00070009000018eb000418780003
:10332000030009000018eb00051878000518780064
:103330008003eb000698be00870020000718780085
:1033400001087800e4014000c4112a0084197800c3
:10335000040020009401880064e4210084097800be
:1033600000000600030220000422200015002000b7
:1033700006802800322098000700080001000000a5
:10338000031878000018eb00070009000018eb0094
:1033900004187800030009000018eb0005187800f5
:1033a000051878008003eb000698be008700200017
:1033b0000718780001087800e4014000c4112a00d1
:1033c0008409780000000600881f7800891f7800b3
:1033d0008a1f78008b1f78008c1f78008d1f780063
:1033e0000105780082057800fe064000fe80460058
:1033f000e8804000b1017800110178000206e90080
:103400002a00fa00230f98000001eb00720f9800c9
:10341000321798004217980062022000020147000c
:10342000020f98007e014700120f98000c800800e0
:10343000b50000000e01780066804600fe80560050
:10344000a81e0200000000002d0090009d009000ca
:1034500066815600ee0147000382e9000e04780001
:10346000581e020000000000b8027800b882420036
:10347000b8824200b8824200b8824200b88242005c
:1034800038834200180343008581d1002317980038
:103490008681d100031798000e0a90004d0c900011
:1034a000061020000640e10002003d0042c4de009c
:1034b00001003700080420000d1090009d109000be
:1034c000008abe001d0890001401be00880078002c
:1034d000fe1e020000000000300f9800be0a90009f
:1034e0000e0078003a81fb00021878000518780079
:1034f0002d099000021878003d099000021878000c
:103500002e099000020878000e0078009e089000b6
:1035100072814600fe8146008381e8005d129000c2
:10352000741f0200000000005d0890000e0a900069
:10353000fe0890001401be001c1f020000000000e5
:10354000500f9800fd08900011179800ed089000aa
:10355000f10e98007e0990000200e00003003d009b
:1035600003002800028251000100370002027800a7
:10357000ae11900083024200f3ff2f0005f0a60079
:1035800013002000e30e98008001eb000500e0002e
:103590000100320013002000630f98000e14900009
:1035a00008004200400f980000f0a7000500370017
:1035b000f1ff21000100e100060034000100780065
:1035c0000800370001002e000100e1000400340073
:1035d00004003700f2ff2300020060000100370002
:1035e00001007800801d78000e047800ee0990003c
:1035f000031c7800ed0890007d0a90000409b800d3
:10360000021c78001e1290000409b800e2814600f6
:10361000021c780064814600131c7800121c78009c
:103620005e0a9000041c78000e0078008800780084
:103630002c2002000000000002202d0013002000ba
:103640001810e10001003c008001eb007a81460087
:103650000009eb005e0a90000400e00001003a005f
:10366000030978002d089000bd0890003e099000e5
:103670005e0a9000cd0a9000441f02000000000086
:10368000c00e98008e0378002d109000801b7800eb
:103690007e089000801b78005e089000800b780008
:1036a0000e007800fe8056006681460092200200df
:1036b00000000000648156008d017800a21178009e
:1036c000920978006c825600e8825600a4127800b5
:1036d000a4127800a4127800a4127800a412780032
:1036e000a4127800a4127800a4127800a412780022
:1036f000940a78004e089000fe089000840178003b
:10370000ca20020000000000000000000080fa0053
:10371000cf0678004f067800cf0578004f05780077
:10372000cf0478004f04780000000600881f78005e
:10373000891f78008a1f78008b1f78008c1f780003
:103740008d1f78000105780082057800fe06400094
:10375000fe804600e8804000b10178001101780049
:103760000206e9002e00fa00230f98008000eb000b
:10377000610f9800710f9800411798005117980039
:10378000fc00470061179800fe004700110f9800e9
:103790008202200082004700010f98000c80080080
:1037a000b40000000e01780066804600fe805600de
:1037b000a81e0200000000002d0090009d00900057
:1037c00066815600ee0147000382e9000e0478008e
:1037d000581e020000000000b8027800b8824200c3
:1037e000b8824200b8824200b8824200b8824200e9
:1037f00038834200180343008581d10033179800b5
:103800008681d100031798003a00780010179800bd
:103810001e1190008e1190000e0a9000830351003b
:103820004d0c9000061020000640e10002003d0013
:1038300042c4de0001003700080420000d10900093
:103840009d109000008abe00070078009e0890003e
:10385000fc20020000000000800478000e0a9000a6
:103860001d0890001401be0088007800fe1e0200b2
:1038700000000000300f98004284de0008805400f1
:10388000fe0890006d11900002000100be0a900039
:10389000804d78000e0078003b81fb000218780014
:1038a000051878002d099000021878003d09900055
:1038b000021878002e099000020878000e007800a7
:1038c000ee10900072814600fe8146008381e80080
:1038d0005d129000741f0200000000005d0890005f
:1038e0000e0a9000ee0890001401be001c1f02009a
:1038f00000000000500f9800fd089000211798006c
:10390000ed089000f10e98006e0990000200e000b2
:1039100003003d000300280002825100010037002f
:1039200002027800be11900083024200f3ff2f00d4
:1039300005f0a60013002000e30e98008001eb00c4
:103940000500e00001003200130020000e1190007d
:1039500002034200460f98000e047800031c780012
:10396000ed0890007d0a90000409b800021c780060
:103970002e1290000409b800e2814600021c780073
:1039800064814600131c7800121c78005e0a9000c7
:10399000041c78000e007800880078002c200200bb
:1039a0000000000002202d00130020001810e1008c
:1039b00001003c008001eb007a8146000009eb0029
:1039c0005e0a90000400e00001003a00030978005c
:1039d0002d089000bd0890003e0990005e0a9000fe
:1039e000cd0a9000441f020000000000c00e9800a5
:1039f0008e0378002d109000801b78006e089000d8
:103a0000801b78005e089000800b78000e00780024
:103a1000fe805600668146009220020000000000f1
:103a2000648156008d017800a21178009209780017
:103a30006c825600e8825600a4127800a412780026
:103a4000a4127800a4127800a4127800a4127800be
:103a5000a4127800a4127800a4127800940a7800c6
:103a60004e089000ee08900084017800ca20020001
:103a700000000000000000000080fa00cf0678007f
:103a80004f067800cf0578004f057800cf04780006
:103a90004f047800000006003015b1001e0033000e
:103aa0008008b1000e0033005003b100060033005f
:103ab0009001b10002003300f00020003400370014
:103ac000e000200032003700a001b0000200330007
:103ad000d00020002e003700c00020002c0037004e
:103ae000e003b000060033000002b1000200330022
:103af000b000200026003700a0002000240037007e
:103b00003002b00002003300900020002000370097
:103b1000800020001e003700f010b00012003300bb
:103b20002008b1000a0033004003b1000600330052
:103b30000003b100020033007000200014003700c1
:103b400060002000120037005000200010003700f5
:103b5000b003b00002003300400020000c0037002a
:103b6000300020000a0037000000ea00e00bb1003e
:103b700006003c00a006b00002003c00200020002f
:103b8000030037001000200001003700f001200082
:103b90000100e000010032007f0010000000e000a2
:103ba00001003a00f001200000000600600fb100a3
:103bb0000e0033007006b100060033003003b10080
:103bc0000200330070002000150037006000200064
:103bd000130037001003b000020033005000200033
:103be0000f003700400020000d0037002017b00004
:103bf0000a003500c00cb100060033002006b100f9
:103c000002003300300020000500370020002000b3
:103c1000030037001000200001003700f0002000f2
:103c20000100e000010032006f0010000000e00021
:103c300001003a00f000200000000600a00db100d5
:103c4000060033001007b1000200330030002000ee
:103c5000070037002000200005003700200db000cd
:103c60000200350010002000010037007000200025
:103c70000100e00001003200670010000000e000d9
:103c800001003a0070002000000006005010b10052
:103c90000200350010002000010037000000eb009a
:103ca0000100e00001003200630010000000060087
:103cb0000100080024000000c28bde0001f0a70014
:103cc0008703ea008782cf00f18112000700e0003d
:103cd00003003a0005022000030020000300370023
:103ce0000780ca000380c8000585cc0001f0a7004a
:103cf0008502ea0032abb9008003eb000600e00069
:103d000002003d00170020000603ea000603b00091
:103d100044b3de004733dd00b2804100fa8050003a
:103d20000100e00003003c008100ea0001b3de0076
:103d3000020037000133dd0006f0a1000700a700f4
:103d40000603ea0080007800061a780000000600ea
:103d5000f3ff210005000800260000001083d100b9
:103d60000683d1001000e00002003d000603ea00d7
:103d7000068361000682cf00710212000600e00097
:103d800003003a0006022000040020000300370070
:103d90000680ca000480c8000685cc0030f0a70069
:103da0000603ea0031b3b9008003eb000600e0002f
:103db00002003d00170020000603ea000603b000e1
:103dc00044b3de004733dd00310242007a02520084
:103dd0000400e000030034000432dd0004f0a10020
:103de000020037000402ea0004b2de000700a70068
:103df0000402ea00041978000000060001027800bd
:103e000012018800230188004600c80011018000cb
:103e1000010350001301c10006f0a7001341c100c7
:103e20004700c8001201800006f0a7000201ea0066
:103e300001004100000006006100e10010003a00ae
:103e400001f0a1000300ca00120188008207cc0023
:103e50000305cc00ff8161000302b0008219dd0080
:103e60006910e1000100340003c027000301d10004
:103e7000030141000201d100100020000208e60009
:103e80000000eb00000006004203dd0001035300c8
:103e900013003300c38bde0011002000f05f200010
:103ea0000010e100050034000730e10003003d0090
:103eb0000300e00001003a0001002000c908dd0015
:103ec000058150004491de00050041000400e0003f
:103ed00001003a000000060000102000000006006b
:103ee0000603ea00ebff3700881f78000403780020
:103ef00010027800c0029000e182520085a2de002c
:103f00000402d000040343009003900016027800de
:103f1000c2bbde0007024200078020008703620068
:103f2000080820001281c30048018800f80720001b
:103f30000804620047a2de00f400b2000800ca00d4
:103f40005000c8000000cb000700e0000200320073
:103f50008003eb00040037007900c8006e021200f5
:103f60000400c80017018000cf2add0087884200c6
:103f7000463a9000f7012000a00290001301c5000e
:103f80004b24dd004922dd000480ca004f80c800b8
:103f90000000cb004600c80014018000042978000e
:103fa000f4072000b00290001301c0000880ca008e
:103fb0004f80c8000000cb004800c80014018000fa
:103fc0000429780086ba9000100390001301c600ff
:103fd0000580ca004a80c8000000cb004600c80027
:103fe0001601800004222000640151000430e10029
:103ff00002003d000409780006003700044021005b
:104000000430e100020034000409780001003700a8
:10401000060978001302be00f80320000823b80048
:104020000828b800870340000700ca00160188006e
:10403000120278000480ca004a80c8000000cb0049
:104040004600c80014018000250180008489be005c
:104050004f04780000000600200290004c22dd0092
:10406000b00290000503780017002e000728e60034
:1040700007037800f7ff210007a8e6000703780090
:1040800050b3b9000602520045a2de0040a3b900b9
:1040900040029000c7a3de0007035300060342005e
:1040a00086087800040023000430e1000100340099
:1040b0008408780004002d000430e10001003d0078
:1040c000840878001003be0007b3b900070c200075
:1040d00007b3b900c8abde00070353008682420075
:1040e00004c02300110252000403ea008503780093
:1040f0000628e6008603780004a8e600840378001a
:10410000500290000400e000030032008009eb0040
:104110000009eb00020037008709780011097800d8
:1041200000000600a00290006128e10003003a00b0
:10413000050009000019eb00150037009001780018
:104140009003900007f0a1000700e0000400340095
:10415000070820005000e00001003c0007f82f0095
:104160000003eb000500080008000000e1027b00ee
:104170000702780005f0a7000702ea009202780023
:1041800083aade00850252006403430012994200b4
:10419000000006000002780000f0a7000402ea0018
:1041a00001000800120000008482cf00f18212009a
:1041b0000540a7008002eb000400e00002003a0086
:1041c00004022000030037000405ca000500c800ef
:1041d0002401800000f0a7000402ea00041978001e
:1041e000050978000100780001f0a10001027800c3
:1041f00003017800000006004f01de00820878000d
:1042000000f0a7000000ea000082cf007002120058
:104210007020e10001003500040020008004ca0085
:104220000400c80025018000f507b2004720dd002a
:084230000080420000000600be
:020000040000fa
:0200000401f009
:04000800ffff0000f6
:020000040000fa
:0200000401f009
:04000c00fbff0000f6
:020000040000fa
:0200000401f009
:0400100078ff000075
:020000040000fa
:0200000401f009
:040014007fff00006a
:020000040000fa
:10000800bc220000bc220000bc220000bc22000070
:10001800bc220000bc220000bc220000bc22000060
:10002800bc220000bc220000bc220000bc22000050
:10003800bc220000bc220000bc220000bc22000040
:10004800bc220000bc220000c80d0000bc22000039
:10005800bc220000bc220000bc220000bc22000020
:10006800bc220000bc220000bc220000bc22000010
:10007800bc220000bc220000bc220000bc22000000
:10008800bc220000bc220000bc220000d2100000ec
:10009800bc220000bc220000bc220000bc220000e0
:1000a800bc220000bc220000bc220000bc220000d0
:1000b800bc220000bc220000bc220000bc220000c0
:1000c800bc220000bc220000bc220000bc220000b0
:1000d800bc220000bc220000bc220000bc220000a0
:1000e800bc220000bc220000bc220000bc22000090
:1000f800bc220000bc220000bc220000bc22000080
:10010800bc220000bc220000bc220000bc2200006f
:10011800da130000bc220000bc220000bc22000050
:10012800bc220000bc220000bc220000bc2200004f
:10013800bc220000bc220000bc220000bc2200003f
:10014800bc220000bc220000bc220000bc2200002f
:10015800bc220000bc220000bc220000bc2200001f
:10016800bc220000bc220000bc220000bc2200000f
:10017800bc220000bc220000bc220000bc220000ff
:10018800bc220000bc220000bc220000bc220000ef
:10019800bc220000bc220000bc220000bc220000df
:1001a800bc220000bc220000bc220000bc220000cf
:1001b800bc220000bc220000bc220000bc220000bf
:1001c800bc220000bc220000bc220000bc220000af
:1001d800bc220000bc220000bc220000bc2200009f
:1001e800bc220000bc220000bc220000bc2200008f
:0801f800bc220000bc22000043
:020000040000fa
:10020800bc220000bc220000bc220000bc2200006e
:10021800bc220000bc220000bc220000bc2200005e
:10022800bc220000bc220000bc220000bc2200004e
:10023800bc220000bc220000bc220000bc2200003e
:10024800bc220000bc220000c80d0000bc22000037
:10025800bc220000bc220000bc220000bc2200001e
:10026800bc220000bc220000bc220000bc2200000e
:10027800bc220000bc220000bc220000bc220000fe
:10028800bc220000bc220000bc220000d2100000ea
:10029800bc220000bc220000bc220000bc220000de
:1002a800bc220000bc220000bc220000bc220000ce
:1002b800bc220000bc220000bc220000bc220000be
:1002c800bc220000bc220000bc220000bc220000ae
:1002d800bc220000bc220000bc220000bc2200009e
:1002e800bc220000bc220000bc220000bc2200008e
:1002f800bc220000bc220000bc220000bc2200007e
:10030800bc220000bc220000bc220000bc2200006d
:10031800da130000bc220000bc220000bc2200004e
:10032800bc220000bc220000bc220000bc2200004d
:10033800bc220000bc220000bc220000bc2200003d
:10034800bc220000bc220000bc220000bc2200002d
:10035800bc220000bc220000bc220000bc2200001d
:10036800bc220000bc220000bc220000bc2200000d
:10037800bc220000bc220000bc220000bc220000fd
:10038800bc220000bc220000bc220000bc220000ed
:10039800bc220000bc220000bc220000bc220000dd
:1003a800bc220000bc220000bc220000bc220000cd
:1003b800bc220000bc220000bc220000bc220000bd
:1003c800bc220000bc220000bc220000bc220000ad
:1003d800bc220000bc220000bc220000bc2200009d
:1003e800bc220000bc220000bc220000bc2200008d
:0803f800bc220000bc22000041
:020000040000fa
:10423800740000006d0100006d01000074000000b2
:10424800000800008700000011010000750100004f
:10425800750100001101000087000000000800003f
:10426800000800000400000087000000d5000000de
:10427800110100004301000075010000a9010000c0
:10428800a9010000750100004301000011010000b0
:10429800d5000000870000000400000000080000ae
:1042a80000080000be0f00001c00000068000000ad
:1042b800a9000000e0000000120100003e0100001b
:1042c800660100008b010000ad010000cb01000079
:1042d800e8010000020200001b0200003602000094
:1042e800360200001b02000002020000e801000084
:1042f800cb010000ad0100008b0100006601000049
:104308003e01000012010000e0000000a9000000ca
:10431800680000001c000000be0f0000000800003c
:104328000000000007000000070000000000000077
:10433800000000000100000002000000070000006b
:10434800070000000200000001000000000000005b
:104358000000000000000000000000000100000054
:104368000100000001000000030000000700000039
:104378000700000003000000010000000100000029
:104388000100000000000000000000000000000024
:104398000000000000000000000000000000000015
:1043a8000000000001000000010000000100000002
:1043b80001000000010000000200000003000000ee
:1043c80004000000050000000600000006000000d0
:1043d80006000000060000000500000004000000c0
:1043e80003000000020000000100000001000000be
:1043f80001000000010000000100000000000000b2
:1044080000000000000000000000000000000000a4
:10441800eaff0000b7010000b7010000eaff000052
:10442800fcff00001e00000089000000460200009a
:1044380046020000890000001e000000fcff00008a
:10444800f4ff0000120000002900000040000000f6
:1044580070000000c6000000630100006204000054
:104468006204000063010000c60000007000000044
:10447800400000002900000012000000f4ff0000c6
:104488000e0000000e0000001800000027000000c9
:1044980028000000290000003a0000006400000025
:1044a8008d000000b3000000db00000018010000d0
:1044b80066010000b801000011020000b802000007
:1044c800b802000011020000b801000066010000f7
:1044d80018010000db000000b30000008d000000a0
:1044e800640000003a0000002900000028000000d5
:1044f80027000000180000000e0000000e00000059
:020000040000fa
:10450800640e000002000000000000005c0e0000c5
:104518000400000002000000100e0300000000006c
:1045280050080000f005000000000000600e0000c8
:104538000400000000000000660e000002000000f9
:1045480002000000400e0000400e00001c000000a9
:1045580000000000680e00000200000000000000db
:104568006a0e0000020000000000000000000000c9
:020000040000fa
:044578000000fe0041
:00000001FF
