:020000040000fa
:080000000002040000000000f2
:020000040000fa
:10040000cfd22000807f240000018800000000007f
:10041000050007000c000700800202000000000039
:100420000040da000000fe004440a900002d20003a
:100430000000e0000300320000002000a00188005e
:100440004440a80000000600206a210001002000ae
:100450001600370062004000e080480091018800eb
:100460009001ba0062004000e080480091018800dd
:100470009002ba0062004000e08048000002eb00f9
:100480006028e10005003a008301e900070033001d
:10049000038009000059eb00040037006128e100e7
:1004a000010032000082eb00050007009101880086
:1004b0001001ba000200e000e6ff3a00000005006b
:1004c000910188008002780062004000e0804800ce
:1004d0003559ba008301e900080032002559ba00f5
:1004e0008301e900050032000400e000f4ff32005f
:1004f00015d9ba008301e900f1ff3a0000000600b7
:100500000000fa000c0007006b0507000000370030
:100510004100070020698000e10f500001003a000f
:1005200057000700206980000000e000f8ff3a0053
:1005300086000700f6ff37000000fa006002200086
:10054000303a8800417420009140780000ceb3001a
:1005500000c060000004a00044e7b70044c7bf002b
:10056000f043b20044e7b7000000eb00403a8800d7
:100570001200200081072000a00920003374200011
:100580008149780080497800824978001200200073
:100590006104200070052000237420008149780048
:1005a000804978008249780043c7bf000047b20005
:1005b000f04f5000fcff3a0042c7bf000042b200bb
:1005c0000004e000fcff3200c6c2a800c6e2a8009a
:1005d000c000070010698000c1a820000a010700c0
:1005e000106980004201070010698000db020700eb
:1005f0000205200021002000409f20004b0507003d
:10060000020520002100200000a42000640507004e
:100610000080fa00000006000000fa00c8c2bf0017
:100620000044b2000004e00005003200d1a2a8009e
:10063000d1c2a9000000eb00206988000e0037003d
:10064000c8c2bf0001c8b300014060000004e00060
:1006500005003200d1a2a900d1c2a80010002000dc
:100660002069880004003700d1a2a800d1c2a800e8
:100670000000eb00206988000080fa0000000600fe
:100680000000fa0010698000990107000000e000f6
:100690002c003a001069800002052000018520002e
:1006a0004d01070001d220000040eb008048780097
:1006b0001300370000d22000104078008081fb003a
:1006c00000d22000104078000080fb00018520004f
:1006d00000004000608078004281de00018520003b
:1006e00003804100010040000208780000d2200091
:1006f000104078008040e80000d2200001487800d7
:1007000000d2200090407800f0c4b30080cf5000a9
:10071000e8ff36000299200001852000409f20005c
:10072000380507002300200002052000019e20005c
:1007300000992000fb03070041012000009e2000db
:10074000350007000080fa00000006000000fa00f3
:1007500010698000550107000000e0002c003a00fd
:1007600041012000009e20004300070023002000dc
:100770000205200001992000009e20005e04070071
:10078000028f20000199200000a42000f805070036
:1007900001d220000040eb008048780013003700b1
:1007a00000d22000104078008081fb0000d22000a1
:1007b000104078000080fb00018f20000000400006
:1007c000608078004201dd00018f2000038041003d
:1007d000010040000208780000d22000104078009c
:1007e0008040e80000d220000148780000d22000bc
:1007f00090407800f0c4b30080cf5000e8ff36008e
:100800001069800002052000018f200048010700c8
:100810000080fa00000006000600fa0010079800a9
:10082000210798000040eb00004f78000c003700d3
:1008300040c2bf00624060000004e000fcff3200e4
:100840001e80fb00800078001e00900000804000a9
:10085000104078000080fb00401288001e4fe80026
:100860009e80fb002e009000808f5000f0ff35002e
:100870000080fa00000006000600fa001007980049
:10088000210798000040eb00004f78000b00370074
:1008900040c2bf00614060000004e000fcff320085
:1008a0001e80fb00800078001e00900080804000c9
:1008b00040128000804878001e4fe8009e80fb00b8
:1008c0002e009000808f5000f1ff35000080fa006c
:1008d000000006000400fa00cda2a900cde2a900a4
:1008e000cdc2a900d1a2a800d1e2a800d1c2a8001f
:1008f000d302a800d322a800e402a900e422a900a0
:10090000e802a900e822a9000000eb003069880095
:100910000000eb00406988002ca3a800c6a2a90033
:10092000caa2a8006000b800008fbe000500370012
:100930000000000010002000010020001e0f4000f9
:100940005e974800f07f200001002000be0f1000dd
:10095000ae8f1800f6ff34000080fa000000060099
:100960000200fa00d5c2bf00614060000004e00050
:1009700009003a00306980000000e8003069880012
:1009800030698000ec0f500007003a001000200092
:10099000000f7800040037000000eb003069880089
:1009a0000000eb00000f78001e0078000080fa00c5
:1009b000000006000200fa00d5c2bf0062406000dd
:1009c0000004e00009003a00406980000000e800ef
:1009d0004069880040698000ec0f500007003a0031
:1009e00010002000000f7800040037000000eb002a
:1009f000406988000000eb00000f78001e007800be
:100a00000080fa00000006000600fa0010079800b7
:100a10002107980081e2a90007e2a90007a2a90026
:100a20000762a9000742a9000722a8000702a9003f
:100a30000011200020108800e442a800e462a80011
:100a40000070200000148800f000200010148800be
:100a5000100020004014880010002000601488005e
:100a60001e009000506988001e009000ae009000ab
:100a7000010878002e009000010a200080804000cc
:100a80001e009000110098002e009000011420001c
:100a9000808040001e009000210098002e009000f1
:100aa000011e2000808040001e0090003100980050
:100ab0000000eb00000f7800080037001e007800ef
:100ac00000004000800078002e00900080804000f0
:100ad0000000eb00800878001e0fe800f0132000f3
:100ae0009e0f1000f5ff34000080fa0000000600a1
:100af0000200fa00000f78009e0078000000eb0072
:100b0000900898001e00780010089000800078007f
:100b10000100a0001e007800110898001e00780057
:100b200010089000800078000110a0001e007800de
:100b3000110898001e0078001000780080007800ee
:100b40001e007800710098001e00780020009000c0
:100b5000800078001e007800010898009e00780050
:100b60000000eb00c00098009e007800f004200018
:100b7000d00098009e007800f0042000e00098006b
:100b80001e0078000008900010007800c014880053
:100b900007e2a8008b80a9009b80a800210c200000
:100ba0009140780080cfb30000c060000024a00016
:100bb000c2e0b70081e2a8000080fa000000060051
:100bc0000200fa00000f780081e2a9009b80a900d2
:100bd0000080fa00000006000a00fa0020079800d2
:100be00031079800420798002e00900010089000ee
:100bf0004200de000000a200610060000004e0008e
:100c0000040032002e009000900090001107980020
:100c1000030037002e009000900078001107980024
:100c2000ce00900000052000808f500002003400ac
:100c300000052000400798000000eb00000f78003e
:100c40000d0037001e007800000040008000780092
:100c50003e009000008140001e007800000040002f
:100c6000800078001e009000008040001000780096
:100c7000000978001e0fe8004e0090009e0f100043
:100c8000f0ff35000400fc002e00900010089000da
:100c9000800078000100a0002e009000110898004c
:100ca0000000fc000080fa00000006000400fa00ca
:100cb000000f78001e007800100890000000d1009e
:100cc0000000a200610060000004e00003003200a8
:100cd0000000eb0010079800020037001000200011
:100ce000100798001e0090000080fa000000060027
:100cf0000400fa00000f78001e0078001008900031
:100d00000000a200610060000004e0000300320067
:100d10000000eb00100798000200370010002000d0
:100d2000100798001e0090000080fa0000000600e6
:100d30000a00fa002007980031079800420798003f
:100d40002e009000100890004200de000000a2007b
:100d5000610060000004e000040032002e009000fa
:100d6000b000900011079800030037002e0090009b
:100d7000a000900011079800ce0090000005200010
:100d8000808f5000020034000005200040079800ca
:100d90002e009000ce009000610098000000eb0053
:100da000000f78000d0037001e00780000004000a2
:100db000800078001e009000008140001e00780036
:100dc00000004000800078003e009000008040005d
:100dd00010007800000978001e0fe8004e00900017
:100de0009e0f1000f0ff35000400fc002e00900064
:100df00010089000800078000110a0002e009000e4
:100e0000110898000000fc000080fa0000000600b5
:100e10000a00fa001007980021079800320798008e
:100e20003e00900010007800000f78001e409000f7
:100e300061406000104798002e00900000004000c4
:100e4000200798001e4090008080fb002e0090003c
:100e500001007000200798000602a80006c2bf002b
:100e6000614060000004e000fcff3a004003200005
:100e70001010880009c2bf000044b2000004e00066
:100e8000fcff3a0009c2bf0001c8b3000140600086
:100e90000004e000080032000642a80006c2bf00bd
:100ea000644060000004e000fcff3a000080eb00ba
:100eb000400798002e0037002e0090001010880088
:100ec00009c2bf000044b2000004e000fcff3a0089
:100ed00009c2bf0001c8b300014060000004e00087
:100ee000080032000642a80006c2bf00644060004d
:100ef0000004e000fcff3a000080eb00400798008f
:100f00001b0037001e4078000080fb001010880096
:100f100009c2bf000044b2000004e000fcff3a0038
:100f200009c2bf0001c8b300014060000004e00036
:100f3000080032000642a80006c2bf0064406000fc
:100f40000004e000fcff3a000080eb00400798003e
:100f5000070037000642a80006c2bf0064406000d8
:100f60000004e000fcff3a00100020004007980059
:100f70004e0090000080fa0000000600809fbe0036
:100f8000821f78000000fa008b80a9002069800091
:100f9000e10f500034003a0050698000f0009000ea
:100fa00050698000400090000000400080804000b8
:100fb0008014800080087800516980004100900012
:100fc0000000e800c000980050698000c000900058
:100fd0005069800050009000808f50005b003a0004
:100fe0005169800050698000100890000020a20024
:100ff0009008980050698000100890004200de00c0
:10100000610060000004e0000500320051698000ca
:101010005069800010009000f00098000400370034
:10102000516980005069800010007800f00098003d
:10103000516980000000eb00c000980051698000f9
:101040005069800060009000d000980052698000d4
:101050005069800090089000e0ff2f000080600041
:10106000100998003900370050698000800890000e
:101070005069800040009000000040000080400067
:1010800010007800c0148800516980004100900071
:101090000000e800c000980050698000c000900087
:1010a0005069800050009000808f500027003a0067
:1010b0005169800050698000100890000020a20053
:1010c0009008980050698000100890004200de00ef
:1010d000610060000004e0000500320051698000fa
:1010e00050698000300090008008980004003700ac
:1010f00051698000506980002000900080089800ad
:10110000516980000000eb00c00098005169800028
:101110005069800060009000d00098005269800003
:101120005069800090089000e0ff2f000080600070
:101130001009980052698000506980009008900062
:10114000d0ff2f0000806000100998000080fa0096
:101150004f0178004f00be00004006000600fa0074
:101160002007980010002000100798000e81e8006a
:101170008000eb002e00900025ff0700000f780094
:101180000080eb009e0f100001003a00ffff3700c7
:10119000f0062000100798000e81e80011002000e2
:1011a0002e0090001aff07000080eb009e0f100039
:1011b00001003a00ffff370050012000100798009f
:1011c0000e81e800210020002e00900010ff070093
:1011d0000080eb009e0f100001003a00ffff370077
:1011e00090082000100798000e81e80031002000d0
:1011f0002e00900006ff07000080eb009e0f1000fd
:1012000001003a00ffff370080012000100798001e
:101210000e81e800410020002e009000fcfe070037
:101220000080eb009e0f100001003a00ffff370026
:10123000901a2000100798000e81e800610020003d
:101240002e009000f2fe07000080eb009e0f1000c1
:1012500001003a00ffff3700a000200010079800af
:101260000e81e800710020002e009000e8fe0700cb
:101270000080eb009e0f100001003a00ffff3700d6
:1012800040002000100798000e81e8008100200037
:101290002e009000defe07000080eb009e0f100085
:1012a00001003a00ffff370080102000100798006f
:1012b0000e81e800e10020002e009000d4fe07001f
:1012c0000080eb009e0f100001003a00ffff370086
:1012d00000042000100798000e81e800b1012000f2
:1012e0002e009000cafe07000080eb009e0f100049
:1012f00001003a00ffff370050002000100798005f
:101300000e81e800c10120002e009000c0fe070001
:101310000080eb009e0f100001003a00ffff370035
:10132000f0032000100798000e81e800d101200092
:101330002e009000b6fe07000080eb009e0f10000c
:1013400001003a00ffff3700d00720001007980087
:101350000e81e800e10120002e009000acfe0700a5
:101360000080eb009e0f100001003a00ffff3700e5
:1013700000102000100798000e81e800e101200015
:101380002e009000a2fe07000080eb009e0f1000d0
:1013900001003a00ffff370080012000100798008d
:1013a0000e81e800410220002e00900098fe070008
:1013b0000080eb009e0f100001003a00ffff370095
:1013c000c0002000100798000e81e80051022000a4
:1013d0002e0090008efe07000080eb009e0f100094
:1013e00001003a00ffff3700300920001007980085
:1013f0000e81e800610220002e00900084fe0700ac
:101400000080eb009e0f100001003a00ffff370044
:10141000900e2000100798000e81e8007102200055
:101420002e0090007afe07000080eb009e0f100057
:1014300001003a00ffff370040002000100798002d
:101440000e81e800c10220002e00900070fe07000f
:101450000080eb009e0f100001003a00ffff3700f4
:101460000000eb00100798000e81e800f102200058
:101470002e00900066fe07000080eb009e0f10001b
:1014800001003a00ffff370010002000100798000d
:101490000e81e800810320002e0090005cfe070012
:1014a0000080eb009e0f100001003a00ffff3700a4
:1014b0000080fa00000006000600fa0020079800ed
:1014c00010002000100798000e81e8008000eb005b
:1014d0002e0090004efe0700000f78000080eb0009
:1014e0009e0f100001003a00ffff3700f0062000b9
:1014f000100798000e81e800110020002e009000d7
:1015000043fe07000080eb009e0f100001003a0030
:10151000ffff370050012000100798000e81e800ff
:10152000210020002e00900039fe07000080eb0013
:101530009e0f100001003a00ffff370090082000c6
:10154000100798000e81e800310020002e00900066
:101550002ffe07000080eb009e0f100001003a00f4
:10156000ffff370080012000100798000e81e8007f
:10157000410020002e00900025fe07000080eb00b7
:101580009e0f100001003a00ffff37009016200068
:10159000100798000e81e800610020002e009000e6
:1015a0001bfe07000080eb009e0f100001003a00b8
:1015b000ffff370060002000100798000e81e80050
:1015c000710020002e00900011fe07000080eb004b
:1015d0009e0f100001003a00ffff3700400020007e
:1015e000100798000e81e800810020002e00900076
:1015f00007fe07000080eb009e0f100001003a007c
:10160000ffff370080012000100798000e81e800de
:10161000410220002e009000fdfd07000080eb003d
:101620009e0f100001003a00ffff3700c0002000ad
:10163000100798000e81e800510220002e00900053
:10164000f3fd07000080eb009e0f100001003a0040
:10165000ffff370030092000100798000e81e800d6
:10166000610220002e009000e9fd07000080eb00e1
:101670009e0f100001003a00ffff3700900e20007f
:10168000100798000e81e800710220002e009000e3
:10169000dffd07000080eb009e0f100001003a0004
:1016a000ffff370040002000100798000e81e8007f
:1016b000c10220002e009000d5fd07000080eb0045
:1016c0009e0f100001003a00ffff37000000eb0002
:1016d000100798000e81e800f10220002e00900013
:1016e000cbfd07000080eb009e0f100001003a00c8
:1016f000ffff370010002000100798000e81e8005f
:10170000810320002e009000c1fd07000080eb0047
:101710009e0f100001003a00ffff37000080fa0022
:10172000000006001a00fa0070079800010f9800e8
:10173000120f9800230f98000e08900020079800c1
:101740001e0890000000e00003003c008000eb0059
:10175000310f9800650037002e089000400f980068
:10176000ce089000e38f5000110032004e08900028
:10177000e30f500004003e00ce089000e28f5000be
:1017800008003200130037004e089000e40f5000ac
:101790000a003200ce089000e58f50000a003200a7
:1017a0000c00370080002000300798000c00370044
:1017b000500020003007980009003700400020004a
:1017c00030079800060037003000200030079800ee
:1017d000030037000000eb00300f98004300370093
:1017e0000000eb00400798000000eb006007980045
:1017f0000000eb00100798000000eb00000f7800dd
:10180000280037004e009000800078007e00900095
:1018100000804000104078000080fb0050079800d6
:101820009e0090002e0890000088b900800078008b
:101830005e0090000100dd0050079800ee0090006f
:101840005e00900000807000600798001e0090000d
:101850000000e800100798004e0090000000e8002b
:10186000400798009e0090003e009000808f50003e
:101870000c003a001e007800000040008000780054
:101880002e00900000804000ee00900001087800db
:101890000000eb00100798001e0fe8000000eb00ae
:1018a00060079800ce0090001e089000808f5000c6
:1018b000d4ff35001e0090000000e0000800320058
:1018c0001e00780000004000800078002e0090008c
:1018d00000804000ee009000010878001e0fe80034
:1018e0001e00780000004000300f98003e08900075
:1018f0000080fa00000006001c00fa00000f9800ab
:10190000110f9800220f9800330f98000e089000d6
:1019100060079800be089000510f98005e08900084
:10192000e30f500013003200de089000e38f5000f8
:1019300004003e005e089000e20f500008003200f4
:101940001b003700de089000e48f50000e003200cc
:101950005e089000e50f50001000320014003700c0
:10196000800020007007980030002000000f7800f1
:10197000120037005000200070079800700020000f
:10198000000f78000d00370040002000700798001d
:10199000f0002000000f7800080037003000200021
:1019a00070079800f0012000000f78000300370056
:1019b0008000eb00410f98003c0037000000eb0076
:1019c000100798000000eb00200798001e00900010
:1019d00000004000800078006e0090000080400011
:1019e00090007800510798000000eb003007980045
:1019f00028003700be0090003e0890000088b90023
:101a0000800078005e0090000100de00004f98002a
:101a10001e007800804078000e48900000c06000f2
:101a2000004f98002e009000800078001e08900063
:101a3000008040008e489000014878002e00900001
:101a40000000e800200798003e0090000000e80039
:101a500030079800be0090007e009000808f5000fc
:101a60000c003a000000eb00300798001e009000c8
:101a70000000e800100798001e00900000004000e1
:101a8000800078006e009000008040009000780098
:101a900051079800ae0090002e089000808f5000f3
:101aa000d4ff35002e009000400f98004e089000a3
:101ab0000080fa00000006000000fa000000eb00c1
:101ac000401288008540a9009540a90021242000eb
:101ad00091407800c0cfb30000c0600042e2b70080
:101ae000212420009140780030ceb30000c0600077
:101af00042e2b70042a2a90042c2a80042e2a90005
:101b00004302a9004322a9004342a9004362a9005d
:101b10004382a90040c2a90041e2a8008540a90073
:101b20009540a9000080fa00000006000302200092
:101b30000422200015002000068028003220980092
:101b40000700080001000000031878000018eb00ef
:101b5000070009000018eb000418780003000900d2
:101b60000018eb0005187800051878008003eb00da
:101b70000698be008700200007187800010878004a
:101b8000e4014000a45329008419780004002000d7
:101b90009401880044262100840978000000060092
:101ba00003022000042220001500200006802800e7
:101bb0003220980007000800010000000318780098
:101bc0000018eb00070009000018eb00041878006b
:101bd000030009000018eb000518780005187800cc
:101be0008003eb000698be008700200007187800ed
:101bf00001087800e4014000a4532900840978001a
:101c000000000600881f7800891f78008a1f78006e
:101c10008b1f78008c1f78008d1f780001057800dd
:101c200082057800fe064000fe804600e880400005
:101c3000b1017800110178000206e9002e00fa00d7
:101c4000230f98008000eb00610f9800710f98003f
:101c50004117980051179800fc0047006117980041
:101c6000fe004700110f980082022000820047000a
:101c7000010f98000c800800b40000000e017800ed
:101c800066804600fe805600c6120200000000007a
:101c90002d0090009d00900066815600ee014700e7
:101ca0000382e9000e0478007612020000000000b2
:101cb000b8027800b8824200b8824200b88242007e
:101cc000b8824200b88242003883420018034300c1
:101cd0008581d100331798008681d10003179800c1
:101ce0003a007800101798001e1190008e11900095
:101cf0000e0a9000830351004d0c90000610200046
:101d00000640e10002003d0042c4de000100370051
:101d1000080420000d1090009d109000008abe0065
:101d2000070078009e0890001c13020000000000cd
:101d3000800478000e0a90001d0890001401be0077
:101d4000880078003c13020000000000300f98006b
:101d50004284de0008805400fe0890006d1190005f
:101d600002000100be0a9000804d78000e0078004d
:101d70003b81fb0002187800051878002d099000bf
:101d8000021878003d099000021878002e09900092
:101d9000020878000e007800ee1090007281460074
:101da000fe8146008381e8005d129000b2130200bc
:101db000000000005d0890000e0a9000ee08900000
:101dc0001401be005a13020000000000500f9800da
:101dd000fd08900021179800ed089000f10e980082
:101de0006e0990000200e00003003d00030028009f
:101df000028251000100370002027800be119000fb
:101e000083024200f3ff2f0005f0a600130020001c
:101e1000e30e98008001eb000500e00001003200b5
:101e2000130020000e11900002034200460f98009c
:101e30000e047800031c7800ed0890007d0a9000e5
:101e40000409b800021c78002e1290000409b800a2
:101e5000e2814600021c780064814600131c780071
:101e6000121c78005e0a9000041c78000e007800b6
:101e7000880078006a1402000000000002202d0093
:101e8000130020001810e10001003c008001eb006d
:101e90007a8146000009eb005e0a90000400e00031
:101ea00001003a00030978002d089000bd08900059
:101eb0003e0990005e0a9000cd0a90008213020055
:101ec00000000000c00e98008e0378002d109000d6
:101ed000801b78006e089000801b78005e089000e0
:101ee000800b78000e007800fe8056006681460068
:101ef000d014020000000000648156008d017800bb
:101f0000a2117800920978006c825600e88256008f
:101f1000a4127800a4127800a4127800a412780009
:101f2000a4127800a4127800a4127800a4127800f9
:101f3000a4127800940a78004e089000ee089000f1
:101f40008401780008150200000000000000000075
:101f50000080fa00cf0678004f067800cf057800a1
:101f60004f057800cf0478004f0478000000060089
:101f7000881f7800891f78008a1f78008b1f7800df
:101f80008c1f78008d1f780001057800820578008d
:101f9000fe064000fe804600e8804000b101780067
:101fa000110178000206e9002a00fa00230f9800c8
:101fb0000001eb00720f980032179800421798004a
:101fc0006202200002014700020f98007e014700d4
:101fd000120f98000c800800b50000000e01780078
:101fe00066804600fe805600c61202000000000017
:101ff0002d0090009d00900066815600ee01470084
:102000000382e9000e04780076120200000000004e
:10201000b8027800b8824200b8824200b88242001a
:10202000b8824200b882420038834200180343005d
:102030008581d100231798008681d100031798006d
:102040000e0a90004d0c9000061020000640e100a2
:1020500002003d0042c4de000100370008042000f9
:102060000d1090009d109000008abe001d08900089
:102070001401be00880078003c130200000000003c
:10208000300f9800be0a90000e0078003a81fb00e5
:1020900002187800051878002d09900002187800c1
:1020a0003d099000021878002e099000020878007f
:1020b0000e0078009e08900072814600fe81460066
:1020c0008381e8005d129000b2130200000000005e
:1020d0005d0890000e0a9000fe0890001401be00fa
:1020e0005a13020000000000500f9800fd089000f5
:1020f00011179800ed089000f10e98007e099000ed
:102100000200e00003003d000300280002825100ad
:102110000100370002027800ae11900083024200f5
:10212000f3ff2f0005f0a60013002000e30e980037
:102130008001eb000500e0000100320013002000e8
:10214000630f98000e14900008004200400f9800a2
:1021500000f0a70005003700f1ff21000100e100b9
:1021600006003400010078000800370001002e004e
:102170000100e1000400340004003700f2ff2300f6
:10218000020060000100370001007800801d780027
:102190000e047800ee099000031c7800ed08900012
:1021a0007d0a90000409b800021c78001e129000fd
:1021b0000409b800e2814600021c780064814600f0
:1021c000131c7800121c78005e0a9000041c780032
:1021d0000e007800880078006a14020000000000f9
:1021e00002202d00130020001810e10001003c0027
:1021f0008001eb007a8146000009eb005e0a900046
:102200000400e00001003a00030978002d08900066
:10221000bd0890003e0990005e0a9000cd0a900033
:102220008213020000000000c00e98008e037800a8
:102230002d109000801b78007e089000801b780095
:102240005e089000800b78000e007800fe8056003b
:1022500066814600d0140200000000006481560030
:102260008d017800a2117800920978006c825600e6
:10227000e8825600a4127800a4127800a412780014
:10228000a4127800a4127800a4127800a412780096
:10229000a4127800a4127800940a78004e089000e6
:1022a000fe0890008401780008150200000000007c
:1022b000000000000080fa00cf0678004f0678008a
:1022c000cf0578004f057800cf0478004f047800e0
:1022d000000006003015b1001e0033008008b10078
:1022e0000e0033005003b100060033009001b1002e
:1022f00002003300f000200034003700e00020002e
:1023000032003700a001b00002003300d0002000ee
:102310002e003700c00020002c003700e003b00082
:10232000060033000002b10002003300b0002000bc
:1023300026003700a0002000240037003002b00043
:1023400002003300900020002000370080002000b1
:102350001e003700f010b000120033002008b1005a
:102360000a0033004003b100060033000003b1004f
:1023700002003300700020001400370060002000cd
:10238000120037005000200010003700b003b000ea
:1023900002003300400020000c0037003000200015
:1023a0000a0037000000ea00e00bb10006003c0024
:1023b000a006b00002003c0020002000030037000f
:1023c0001000200001003700f00120000100e000b3
:1023d000010032007f0010000000e00001003a0020
:1023e000f001200000000600600fb1000e00330075
:1023f0007006b100060033003003b1000200330064
:102400007000200015003700600020001300370026
:102410001003b00002003300500020000f0037000e
:10242000400020000d0037002017b0000a003500e2
:10243000c00cb100060033002006b10002003300da
:102440003000200005003700200020000300370086
:102450001000200001003700f00020000100e00023
:10246000010032006f0010000000e00001003a009f
:10247000f000200000000600a00db10006003300af
:102480001007b100020033003000200007003700c1
:102490002000200005003700200db00002003500ac
:1024a0001000200001003700700020000100e00053
:1024b00001003200670010000000e00001003a0057
:1024c00070002000000006005010b100020035002e
:1024d00010002000010037000000eb000100e000c8
:1024e0000100320063001000000006000100080037
:1024f00024000000c28bde0001f0a7008703ea0081
:102500008782cf00f18112000700e00003003a004b
:102510000502200003002000030037000780ca00e6
:102520000380c8000585cc0001f0a7008502ea0001
:1025300032abb9008003eb000600e00002003d0072
:10254000170020000603ea000603b00044b3de00d3
:102550004733dd00b2804100fa8050000100e00006
:1025600003003c008100ea0001b3de0002003700f6
:102570000133dd0006f0a1000700a7000603ea0012
:1025800080007800061a780000000600f3ff2100a2
:1025900005000800260000001083d1000683d1004a
:1025a0001000e00002003d000603ea00068361001f
:1025b0000682cf00710212000600e00003003a001c
:1025c0000602200004002000030037000680ca0035
:1025d0000480c8000685cc0030f0a7000603ea009e
:1025e00031b3b9008003eb000600e00002003d00bb
:1025f000170020000603ea000603b00044b3de0023
:102600004733dd00310242007a0252000400e0004c
:10261000030034000432dd0004f0a10002003700a2
:102620000402ea0004b2de000700a7000402ea0088
:1026300004197800000006004f01de0082087800cf
:1026400000f0a7000000ea000082cf007002120034
:102650007020e10001003500040020008004ca0061
:102660000400c80025018000f507b2004720dd0006
:10267000008042000000060001027800120188007c
:10268000230188004600c8001101800001035000aa
:102690001301c10006f0a7001341c1004700c800a4
:1026a0001201800006f0a7000201ea0001004100cb
:1026b000000006006100e10010003a0001f0a100f6
:1026c0000300ca00120188008207cc000305cc0079
:1026d000ff8161000302b0008219dd006910e10092
:1026e0000100340003c027000301d10003014100b1
:1026f0000201d100100020000208e6000000eb00fb
:10270000000006004203dd00010353001300330004
:10271000c38bde0011002000f05f20000010e100fc
:10272000050034000730e10003003d000300e00035
:1027300001003a0001002000c908dd0005815000b9
:102740004491de00050041000400e00001003a0071
:102750000000060000102000000006000603ea004a
:10276000ebff3700881f7800040378001002780020
:10277000c0029000e182520085a2de000402d00077
:10278000040343009003900016027800c2bbde00f1
:10279000070242000780200087036200080820002b
:1027a0001281c30048018800f80720000804620075
:1027b00047a2de00f400b2000800ca005000c800c2
:1027c0000000cb000700e000020032008003eb00b5
:1027d000040037007900c8006e0212000400c8002f
:1027e00017018000cf2add0087884200463a90001a
:1027f000f7012000a00290001301c5004b24dd006a
:102800004922dd000480ca004f80c8000000cb00d0
:102810004600c8001401800004297800f407200055
:10282000b00290001301c0000880ca004f80c800a9
:102830000000cb004800c800140180000429780083
:1028400086ba9000100390001301c6000580ca00ec
:102850004a80c8000000cb004600c8001601800076
:1028600004222000640151000430e10002003d0018
:102870000409780006003700044021000430e1001c
:1028800002003400040978000100370006097800ce
:102890001302be00f80320000823b8000828b8007f
:1028a000870340000700ca00160188001202780062
:1028b0000480ca004a80c8000000cb004600c8005f
:1028c00014018000250180008489be004f04780037
:1028d00000000600200290004c22dd00b0029000b3
:1028e0000503780017002e000728e600070378008c
:1028f000f7ff210007a8e6000703780050b3b900ee
:102900000602520045a2de0040a3b900400290003a
:10291000c7a3de00070353000603420086087800c1
:10292000040023000430e100010034008408780032
:1029300004002d000430e10001003d00840878000f
:102940001003be0007b3b900070c200007b3b9009d
:10295000c8abde00070353008682420004c0230098
:10296000110252000403ea00850378000628e600fd
:102970008603780004a8e6008403780050029000e3
:102980000400e000030032008009eb000009eb00c6
:10299000020037008709780011097800000006005e
:1029a000a00290006128e10003003a000500090040
:1029b0000019eb001500370090017800900390009b
:1029c00007f0a1000700e000040034000708200021
:1029d0005000e00001003c0007f82f000003eb006e
:1029e0000500080008000000e1027b0007027800f3
:1029f00005f0a7000702ea009202780083aade0031
:102a00008502520064034300129942000000060050
:102a10000002780000f0a7000402ea0001000800ac
:102a2000120000008482cf00f18212000540a7004e
:102a30008002eb000400e00002003a0004022000e3
:102a4000030037000405ca000500c8002401800007
:102a500000f0a7000402ea000419780005097800d4
:102a60000100780001f0a100010278000301780064
:042a7000000006005c
:020000040000fa
:0200000401f009
:04000800ffff0000f6
:020000040000fa
:0200000401f009
:04000c00fbff0000f6
:020000040000fa
:0200000401f009
:0400100078ff000075
:020000040000fa
:0200000401f009
:040014007fff00006a
:020000040000fa
:10000800c0160000c0160000c0160000c016000090
:10001800c0160000c0160000c0160000c016000080
:10002800c0160000c0160000c0160000c016000070
:10003800c0160000c0160000c0160000c016000060
:10004800c0160000c0160000c0160000c016000050
:10005800c0160000c0160000c0160000c016000040
:10006800c0160000c0160000c0160000c016000030
:10007800c0160000c0160000c0160000c016000020
:10008800c0160000c0160000c0160000c016000010
:10009800c0160000c0160000c0160000c016000000
:1000a800c0160000c0160000c0160000c0160000f0
:1000b800c0160000c0160000c0160000c0160000e0
:1000c800c0160000c0160000c0160000c0160000d0
:1000d800c0160000c0160000c0160000c0160000c0
:1000e800c0160000c0160000c0160000c0160000b0
:1000f800c0160000c0160000c0160000c0160000a0
:10010800c0160000c0160000c0160000c01600008f
:10011800be070000c0160000c0160000c016000090
:10012800c0160000c0160000c0160000c01600006f
:10013800c0160000c0160000c0160000c01600005f
:10014800c0160000c0160000c0160000c01600004f
:10015800c0160000c0160000c0160000c01600003f
:10016800c0160000c0160000c0160000c01600002f
:10017800c0160000c0160000c0160000c01600001f
:10018800c0160000c0160000c0160000c01600000f
:10019800c0160000c0160000c0160000c0160000ff
:1001a800c0160000c0160000c0160000c0160000ef
:1001b800c0160000c0160000c0160000c0160000df
:1001c800c0160000c0160000c0160000c0160000cf
:1001d800c0160000c0160000c0160000c0160000bf
:1001e800c0160000c0160000c0160000c0160000af
:0801f800c0160000c016000053
:020000040000fa
:10020800c0160000c0160000c0160000c01600008e
:10021800c0160000c0160000c0160000c01600007e
:10022800c0160000c0160000c0160000c01600006e
:10023800c0160000c0160000c0160000c01600005e
:10024800c0160000c0160000c0160000c01600004e
:10025800c0160000c0160000c0160000c01600003e
:10026800c0160000c0160000c0160000c01600002e
:10027800c0160000c0160000c0160000c01600001e
:10028800c0160000c0160000c0160000c01600000e
:10029800c0160000c0160000c0160000c0160000fe
:1002a800c0160000c0160000c0160000c0160000ee
:1002b800c0160000c0160000c0160000c0160000de
:1002c800c0160000c0160000c0160000c0160000ce
:1002d800c0160000c0160000c0160000c0160000be
:1002e800c0160000c0160000c0160000c0160000ae
:1002f800c0160000c0160000c0160000c01600009e
:10030800c0160000c0160000c0160000c01600008d
:10031800be070000c0160000c0160000c01600008e
:10032800c0160000c0160000c0160000c01600006d
:10033800c0160000c0160000c0160000c01600005d
:10034800c0160000c0160000c0160000c01600004d
:10035800c0160000c0160000c0160000c01600003d
:10036800c0160000c0160000c0160000c01600002d
:10037800c0160000c0160000c0160000c01600001d
:10038800c0160000c0160000c0160000c01600000d
:10039800c0160000c0160000c0160000c0160000fd
:1003a800c0160000c0160000c0160000c0160000ed
:1003b800c0160000c0160000c0160000c0160000dd
:1003c800c0160000c0160000c0160000c0160000cd
:1003d800c0160000c0160000c0160000c0160000bd
:1003e800c0160000c0160000c0160000c0160000ad
:0803f800c0160000c016000051
:020000040000fa
:102a7400740000006d0100006d010000740000008e
:102a8400000800008700000011010000750100002b
:102a9400750100001101000087000000000800001b
:102aa400000800000400000087000000d5000000ba
:102ab400110100004301000075010000a90100009c
:102ac400a90100007501000043010000110100008c
:102ad400d50000008700000004000000000800008a
:102ae40000080000be0f00001c0000006800000089
:102af400a9000000e0000000120100003e010000f7
:102b0400660100008b010000ad010000cb01000054
:102b1400e8010000020200001b020000360200006f
:102b2400360200001b02000002020000e80100005f
:102b3400cb010000ad0100008b0100006601000024
:102b44003e01000012010000e0000000a9000000a6
:102b5400680000001c000000be0f00000008000018
:102b64000000000007000000070000000000000053
:102b74000000000001000000020000000700000047
:102b84000700000002000000010000000000000037
:102b94000000000000000000000000000100000030
:102ba4000100000001000000030000000700000015
:102bb4000700000003000000010000000100000005
:102bc4000100000000000000000000000000000000
:102bd40000000000000000000000000000000000f1
:102be40000000000010000000100000001000000de
:102bf40001000000010000000200000003000000ca
:102c040004000000050000000600000006000000ab
:102c1400060000000600000005000000040000009b
:102c24000300000002000000010000000100000099
:102c3400010000000100000001000000000000008d
:102c44000000000000000000000000000000000080
:102c5400eaff0000b7010000b7010000eaff00002e
:102c6400fcff00001e000000890000004602000076
:102c740046020000890000001e000000fcff000066
:102c8400f4ff0000120000002900000040000000d2
:102c940070000000c6000000630100006204000030
:102ca4006204000063010000c60000007000000020
:102cb400400000002900000012000000f4ff0000a2
:102cc4000e0000000e0000001800000027000000a5
:102cd40028000000290000003a0000006400000001
:102ce4008d000000b3000000db00000018010000ac
:102cf40066010000b801000011020000b8020000e3
:102d0400b802000011020000b801000066010000d2
:102d140018010000db000000b30000008d0000007b
:102d2400640000003a0000002900000028000000b0
:102d340027000000180000000e0000000e00000034
:020000040000fa
:102d4400220d000004000000020000000c0d02002f
:102d54000000000050080000d20400000000000041
:102d6400260d000004000000000000002a0d0000f1
:0c2d740002000000000000000000000051
:020000040000fa
:042d80000000fe0051
:00000001FF
